{
  "_format": "hh-sol-artifact-1",
  "contractName": "StakingRewards",
  "sourceName": "contracts/StakingRewards.sol",
  "abi": [
    {
      "inputs": [
        {
          "internalType": "address",
          "name": "_rewardsToken",
          "type": "address"
        },
        {
          "internalType": "address",
          "name": "_stakingToken",
          "type": "address"
        }
      ],
      "stateMutability": "nonpayable",
      "type": "constructor"
    },
    {
      "anonymous": false,
      "inputs": [
        {
          "indexed": true,
          "internalType": "address",
          "name": "previousOwner",
          "type": "address"
        },
        {
          "indexed": true,
          "internalType": "address",
          "name": "newOwner",
          "type": "address"
        }
      ],
      "name": "OwnershipTransferred",
      "type": "event"
    },
    {
      "anonymous": false,
      "inputs": [
        {
          "indexed": false,
          "internalType": "address",
          "name": "account",
          "type": "address"
        }
      ],
      "name": "Paused",
      "type": "event"
    },
    {
      "anonymous": false,
      "inputs": [
        {
          "indexed": false,
          "internalType": "address",
          "name": "token",
          "type": "address"
        },
        {
          "indexed": false,
          "internalType": "uint256",
          "name": "amount",
          "type": "uint256"
        }
      ],
      "name": "Recovered",
      "type": "event"
    },
    {
      "anonymous": false,
      "inputs": [
        {
          "indexed": false,
          "internalType": "uint256",
          "name": "reward",
          "type": "uint256"
        }
      ],
      "name": "RewardAdded",
      "type": "event"
    },
    {
      "anonymous": false,
      "inputs": [
        {
          "indexed": true,
          "internalType": "address",
          "name": "user",
          "type": "address"
        },
        {
          "indexed": false,
          "internalType": "uint256",
          "name": "reward",
          "type": "uint256"
        }
      ],
      "name": "RewardPaid",
      "type": "event"
    },
    {
      "anonymous": false,
      "inputs": [
        {
          "indexed": false,
          "internalType": "uint256",
          "name": "newDuration",
          "type": "uint256"
        }
      ],
      "name": "RewardsDurationUpdated",
      "type": "event"
    },
    {
      "anonymous": false,
      "inputs": [
        {
          "indexed": true,
          "internalType": "address",
          "name": "user",
          "type": "address"
        },
        {
          "indexed": false,
          "internalType": "uint256",
          "name": "amount",
          "type": "uint256"
        }
      ],
      "name": "Staked",
      "type": "event"
    },
    {
      "anonymous": false,
      "inputs": [
        {
          "indexed": false,
          "internalType": "address",
          "name": "account",
          "type": "address"
        }
      ],
      "name": "Unpaused",
      "type": "event"
    },
    {
      "anonymous": false,
      "inputs": [
        {
          "indexed": true,
          "internalType": "address",
          "name": "user",
          "type": "address"
        },
        {
          "indexed": false,
          "internalType": "uint256",
          "name": "amount",
          "type": "uint256"
        }
      ],
      "name": "Withdrawn",
      "type": "event"
    },
    {
      "inputs": [
        {
          "internalType": "address",
          "name": "account",
          "type": "address"
        }
      ],
      "name": "balanceOf",
      "outputs": [
        {
          "internalType": "uint256",
          "name": "",
          "type": "uint256"
        }
      ],
      "stateMutability": "view",
      "type": "function"
    },
    {
      "inputs": [
        {
          "internalType": "address",
          "name": "account",
          "type": "address"
        }
      ],
      "name": "earned",
      "outputs": [
        {
          "internalType": "uint256",
          "name": "",
          "type": "uint256"
        }
      ],
      "stateMutability": "view",
      "type": "function"
    },
    {
      "inputs": [],
      "name": "exit",
      "outputs": [],
      "stateMutability": "nonpayable",
      "type": "function"
    },
    {
      "inputs": [],
      "name": "getReward",
      "outputs": [],
      "stateMutability": "nonpayable",
      "type": "function"
    },
    {
      "inputs": [],
      "name": "getRewardForDuration",
      "outputs": [
        {
          "internalType": "uint256",
          "name": "",
          "type": "uint256"
        }
      ],
      "stateMutability": "view",
      "type": "function"
    },
    {
      "inputs": [],
      "name": "lastTimeRewardApplicable",
      "outputs": [
        {
          "internalType": "uint256",
          "name": "",
          "type": "uint256"
        }
      ],
      "stateMutability": "view",
      "type": "function"
    },
    {
      "inputs": [],
      "name": "lastUpdateTime",
      "outputs": [
        {
          "internalType": "uint256",
          "name": "",
          "type": "uint256"
        }
      ],
      "stateMutability": "view",
      "type": "function"
    },
    {
      "inputs": [
        {
          "internalType": "uint256",
          "name": "reward",
          "type": "uint256"
        }
      ],
      "name": "notifyRewardAmount",
      "outputs": [],
      "stateMutability": "nonpayable",
      "type": "function"
    },
    {
      "inputs": [],
      "name": "owner",
      "outputs": [
        {
          "internalType": "address",
          "name": "",
          "type": "address"
        }
      ],
      "stateMutability": "view",
      "type": "function"
    },
    {
      "inputs": [],
      "name": "paused",
      "outputs": [
        {
          "internalType": "bool",
          "name": "",
          "type": "bool"
        }
      ],
      "stateMutability": "view",
      "type": "function"
    },
    {
      "inputs": [],
      "name": "periodFinish",
      "outputs": [
        {
          "internalType": "uint256",
          "name": "",
          "type": "uint256"
        }
      ],
      "stateMutability": "view",
      "type": "function"
    },
    {
      "inputs": [
        {
          "internalType": "address",
          "name": "tokenAddress",
          "type": "address"
        },
        {
          "internalType": "uint256",
          "name": "tokenAmount",
          "type": "uint256"
        }
      ],
      "name": "recoverERC20",
      "outputs": [],
      "stateMutability": "nonpayable",
      "type": "function"
    },
    {
      "inputs": [],
      "name": "renounceOwnership",
      "outputs": [],
      "stateMutability": "nonpayable",
      "type": "function"
    },
    {
      "inputs": [],
      "name": "rewardPerToken",
      "outputs": [
        {
          "internalType": "uint256",
          "name": "",
          "type": "uint256"
        }
      ],
      "stateMutability": "view",
      "type": "function"
    },
    {
      "inputs": [],
      "name": "rewardPerTokenStored",
      "outputs": [
        {
          "internalType": "uint256",
          "name": "",
          "type": "uint256"
        }
      ],
      "stateMutability": "view",
      "type": "function"
    },
    {
      "inputs": [],
      "name": "rewardRate",
      "outputs": [
        {
          "internalType": "uint256",
          "name": "",
          "type": "uint256"
        }
      ],
      "stateMutability": "view",
      "type": "function"
    },
    {
      "inputs": [
        {
          "internalType": "address",
          "name": "",
          "type": "address"
        }
      ],
      "name": "rewards",
      "outputs": [
        {
          "internalType": "uint256",
          "name": "",
          "type": "uint256"
        }
      ],
      "stateMutability": "view",
      "type": "function"
    },
    {
      "inputs": [],
      "name": "rewardsDuration",
      "outputs": [
        {
          "internalType": "uint256",
          "name": "",
          "type": "uint256"
        }
      ],
      "stateMutability": "view",
      "type": "function"
    },
    {
      "inputs": [
        {
          "internalType": "address",
          "name": "_rewardsDistribution",
          "type": "address"
        }
      ],
      "name": "setRewardsDistribution",
      "outputs": [],
      "stateMutability": "nonpayable",
      "type": "function"
    },
    {
      "inputs": [
        {
          "internalType": "uint256",
          "name": "_rewardsDuration",
          "type": "uint256"
        }
      ],
      "name": "setRewardsDuration",
      "outputs": [],
      "stateMutability": "nonpayable",
      "type": "function"
    },
    {
      "inputs": [
        {
          "internalType": "uint256",
          "name": "amount",
          "type": "uint256"
        }
      ],
      "name": "stake",
      "outputs": [],
      "stateMutability": "nonpayable",
      "type": "function"
    },
    {
      "inputs": [],
      "name": "totalSupply",
      "outputs": [
        {
          "internalType": "uint256",
          "name": "",
          "type": "uint256"
        }
      ],
      "stateMutability": "view",
      "type": "function"
    },
    {
      "inputs": [
        {
          "internalType": "address",
          "name": "newOwner",
          "type": "address"
        }
      ],
      "name": "transferOwnership",
      "outputs": [],
      "stateMutability": "nonpayable",
      "type": "function"
    },
    {
      "inputs": [
        {
          "internalType": "address",
          "name": "",
          "type": "address"
        }
      ],
      "name": "userRewardPerTokenPaid",
      "outputs": [
        {
          "internalType": "uint256",
          "name": "",
          "type": "uint256"
        }
      ],
      "stateMutability": "view",
      "type": "function"
    },
    {
      "inputs": [
        {
          "internalType": "uint256",
          "name": "amount",
          "type": "uint256"
        }
      ],
      "name": "withdraw",
      "outputs": [],
      "stateMutability": "nonpayable",
      "type": "function"
    }
  ],
  "bytecode": "0x60806040526000600555600060065562093a8060075534801561002157600080fd5b50604051620013de380380620013de83398101604081905261004291610108565b61004b3361009c565b600180546001600160a01b031916331790556001600255600380546001600160a81b0319166101006001600160a01b0394851602179055600480546001600160a01b0319169190921617905561013b565b600080546001600160a01b038381166001600160a01b0319831681178455604051919092169283917f8be0079c531659141344cd1fd0a4f28419497f9722a3daafe3b4186f6b6457e09190a35050565b80516001600160a01b038116811461010357600080fd5b919050565b6000806040838503121561011b57600080fd5b610124836100ec565b9150610132602084016100ec565b90509250929050565b611293806200014b6000396000f3fe608060405234801561001057600080fd5b50600436106101325760003560e01c80628cc262146101375780630700037d1461015d57806318160ddd1461017d57806319762143146101855780631c1f78eb1461019a5780632e1a7d4d146101a2578063386a9525146101b55780633c6b16ab146101be5780633d18b912146101d15780635c975abb146101d957806370a08231146101ef578063715018a6146102185780637b0a47ee1461022057806380faa57d146102295780638980f11f146102315780638b876347146102445780638da5cb5b14610264578063a694fc3a14610279578063c8f33c911461028c578063cc1a378f14610295578063cd3daf9d146102a8578063df136d65146102b0578063e9fad8ee146102b9578063ebe2b12b146102c1578063f2fde38b146102ca575b600080fd5b61014a6101453660046110af565b6102dd565b6040519081526020015b60405180910390f35b61014a61016b3660046110af565b600b6020526000908152604090205481565b600c5461014a565b6101986101933660046110af565b61035b565b005b61014a610384565b6101986101b03660046110ca565b6103a2565b61014a60075481565b6101986101cc3660046110ca565b6104e5565b610198610738565b60035460ff166040519015158152602001610154565b61014a6101fd3660046110af565b6001600160a01b03166000908152600d602052604090205490565b610198610822565b61014a60065481565b61014a610834565b61019861023f3660046110e3565b61084b565b61014a6102523660046110af565b600a6020526000908152604090205481565b61026c610914565b604051610154919061110d565b6101986102873660046110ca565b610923565b61014a60085481565b6101986102a33660046110ca565b610a58565b61014a610b33565b61014a60095481565b610198610b7e565b61014a60055481565b6101986102d83660046110af565b610b9f565b6001600160a01b0381166000908152600b6020908152604080832054600a909252822054610355919061034f90670de0b6b3a7640000906103499061032a90610324610b33565b90610c15565b6001600160a01b0388166000908152600d602052604090205490610c28565b90610c34565b90610c40565b92915050565b610363610c4c565b600180546001600160a01b0319166001600160a01b03831617905550565b50565b600061039d600754600654610c2890919063ffffffff16565b905090565b6103aa610cab565b336103b3610b33565b6009556103be610834565b6008556001600160a01b03811615610405576103d9816102dd565b6001600160a01b0382166000908152600b6020908152604080832093909355600954600a909152919020555b6000821161044e5760405162461bcd60e51b8152602060048201526011602482015270043616e6e6f74207769746864726177203607c1b60448201526064015b60405180910390fd5b600c5461045b9083610c15565b600c55336000908152600d60205260409020546104789083610c15565b336000818152600d60205260409020919091556004546104a4916001600160a01b039091169084610d02565b60405182815233907f7084f5476618d8e60b11ef0d7d3f06914655adb8793e28ff7f018d4c76d505d5906020015b60405180910390a2506103816001600255565b6001546001600160a01b031633146105525760405162461bcd60e51b815260206004820152602a60248201527f43616c6c6572206973206e6f742052657761726473446973747269627574696f6044820152691b8818dbdb9d1c9858dd60b21b6064820152608401610445565b600061055c610b33565b600955610567610834565b6008556001600160a01b038116156105ae57610582816102dd565b6001600160a01b0382166000908152600b6020908152604080832093909355600954600a909152919020555b60055442106105cd576007546105c5908390610c34565b600655610610565b6005546000906105dd9042610c15565b905060006105f660065483610c2890919063ffffffff16565b60075490915061060a906103498684610c40565b60065550505b6003546040516370a0823160e01b815260009161010090046001600160a01b0316906370a082319061064690309060040161110d565b602060405180830381865afa158015610663573d6000803e3d6000fd5b505050506040513d601f19601f820116820180604052508101906106879190611121565b905061069e60075482610c3490919063ffffffff16565b60065411156106ea5760405162461bcd60e51b81526020600482015260186024820152770a0e4deecd2c8cac840e4caeec2e4c840e8dede40d0d2ced60431b6044820152606401610445565b4260088190556007546106fd9190610c40565b6005556040518381527fde88a922e0d3b88b24e9623efeb464919c6bf9f66857a65e2bfcf2ce87a9433d9060200160405180910390a1505050565b610740610cab565b33610749610b33565b600955610754610834565b6008556001600160a01b0381161561079b5761076f816102dd565b6001600160a01b0382166000908152600b6020908152604080832093909355600954600a909152919020555b336000908152600b6020526040902054801561081457336000818152600b60205260408120556003546107de916101009091046001600160a01b03169083610d02565b60405181815233907fe2403640ba68fed3a2f88b7557551d1993f84b99bb10ff833f0cf8db0c5e04869060200160405180910390a25b50506108206001600255565b565b61082a610c4c565b6108206000610d5d565b60006005544210610846575060055490565b504290565b610853610c4c565b6004546001600160a01b03908116908316036108bb5760405162461bcd60e51b815260206004820152602160248201527f43616e6e6f7420776974686472617720746865207374616b696e6720746f6b656044820152603760f91b6064820152608401610445565b6108d76108c6610914565b6001600160a01b0384169083610d02565b7f8c1256b8896378cd5044f80c202f9772b9d77dc85c8a6eb51967210b09bfaa28828260405161090892919061113a565b60405180910390a15050565b6000546001600160a01b031690565b61092b610cab565b610933610dad565b3361093c610b33565b600955610947610834565b6008556001600160a01b0381161561098e57610962816102dd565b6001600160a01b0382166000908152600b6020908152604080832093909355600954600a909152919020555b600082116109cf5760405162461bcd60e51b815260206004820152600e60248201526d043616e6e6f74207374616b6520360941b6044820152606401610445565b600c546109dc9083610c40565b600c55336000908152600d60205260409020546109f99083610c40565b336000818152600d6020526040902091909155600454610a26916001600160a01b03909116903085610df3565b60405182815233907f9e71bc8eea02a63969f509818f2dafb9254532904319f9dbda79b67bd34a5f3d906020016104d2565b610a60610c4c565b6005544211610af85760405162461bcd60e51b815260206004820152605860248201527f50726576696f7573207265776172647320706572696f64206d7573742062652060448201527f636f6d706c657465206265666f7265206368616e67696e672074686520647572606482015277185d1a5bdb88199bdc881d1a19481b995dc81c195c9a5bd960421b608482015260a401610445565b60078190556040518181527ffb46ca5a5e06d4540d6387b930a7c978bce0db5f449ec6b3f5d07c6e1d44f2d39060200160405180910390a150565b6000600c54600003610b46575060095490565b61039d610b75600c54610349670de0b6b3a7640000610b6f600654610b6f600854610324610834565b90610c28565b60095490610c40565b336000908152600d6020526040902054610b97906103a2565b610820610738565b610ba7610c4c565b6001600160a01b038116610c0c5760405162461bcd60e51b815260206004820152602660248201527f4f776e61626c653a206e6577206f776e657220697320746865207a65726f206160448201526564647265737360d01b6064820152608401610445565b61038181610d5d565b6000610c218284611169565b9392505050565b6000610c21828461117c565b6000610c218284611193565b6000610c2182846111b5565b33610c55610914565b6001600160a01b0316146108205760405162461bcd60e51b815260206004820181905260248201527f4f776e61626c653a2063616c6c6572206973206e6f7420746865206f776e65726044820152606401610445565b6002805403610cfc5760405162461bcd60e51b815260206004820152601f60248201527f5265656e7472616e637947756172643a207265656e7472616e742063616c6c006044820152606401610445565b60028055565b610d588363a9059cbb60e01b8484604051602401610d2192919061113a565b60408051601f198184030181529190526020810180516001600160e01b03166001600160e01b031990931692909217909152610e31565b505050565b600080546001600160a01b038381166001600160a01b0319831681178455604051919092169283917f8be0079c531659141344cd1fd0a4f28419497f9722a3daafe3b4186f6b6457e09190a35050565b60035460ff16156108205760405162461bcd60e51b815260206004820152601060248201526f14185d5cd8589b194e881c185d5cd95960821b6044820152606401610445565b6040516001600160a01b0380851660248301528316604482015260648101829052610e2b9085906323b872dd60e01b90608401610d21565b50505050565b6000610e86826040518060400160405280602081526020017f5361666545524332303a206c6f772d6c6576656c2063616c6c206661696c6564815250856001600160a01b0316610f039092919063ffffffff16565b805190915015610d585780806020019051810190610ea491906111c8565b610d585760405162461bcd60e51b815260206004820152602a60248201527f5361666545524332303a204552433230206f7065726174696f6e20646964206e6044820152691bdd081cdd58d8d9595960b21b6064820152608401610445565b6060610f128484600085610f1a565b949350505050565b606082471015610f7b5760405162461bcd60e51b815260206004820152602660248201527f416464726573733a20696e73756666696369656e742062616c616e636520666f6044820152651c8818d85b1b60d21b6064820152608401610445565b600080866001600160a01b03168587604051610f97919061120e565b60006040518083038185875af1925050503d8060008114610fd4576040519150601f19603f3d011682016040523d82523d6000602084013e610fd9565b606091505b5091509150610fea87838387610ff5565b979650505050505050565b6060831561106457825160000361105d576001600160a01b0385163b61105d5760405162461bcd60e51b815260206004820152601d60248201527f416464726573733a2063616c6c20746f206e6f6e2d636f6e74726163740000006044820152606401610445565b5081610f12565b610f1283838151156110795781518083602001fd5b8060405162461bcd60e51b8152600401610445919061122a565b80356001600160a01b03811681146110aa57600080fd5b919050565b6000602082840312156110c157600080fd5b610c2182611093565b6000602082840312156110dc57600080fd5b5035919050565b600080604083850312156110f657600080fd5b6110ff83611093565b946020939093013593505050565b6001600160a01b0391909116815260200190565b60006020828403121561113357600080fd5b5051919050565b6001600160a01b03929092168252602082015260400190565b634e487b7160e01b600052601160045260246000fd5b8181038181111561035557610355611153565b808202811582820484141761035557610355611153565b6000826111b057634e487b7160e01b600052601260045260246000fd5b500490565b8082018082111561035557610355611153565b6000602082840312156111da57600080fd5b81518015158114610c2157600080fd5b60005b838110156112055781810151838201526020016111ed565b50506000910152565b600082516112208184602087016111ea565b9190910192915050565b60208152600082518060208401526112498160408501602087016111ea565b601f01601f1916919091016040019291505056fea2646970667358221220e1075ae1e3987451fd9f75a02b7584dafae28a8d5307fb6f9b5115e16306abff64736f6c63430008120033",
  "linkReferences": {},
  "deployedLinkReferences": {}
}